:020000040800F2
:1000000018040020C1010008C9010008CB01000844
:10001000CD010008CF010008D10100080000000058
:10002000000000000000000000000000D3010008F4
:10003000D501000800000000D7010008890400086D
:10004000DB010008DB010008DB010008DB01000820
:10005000DB010008DB0100082D020008DB010008BD
:10006000DB010008DB010008DB010008DB01000800
:10007000DB010008DB010008DB010008DB010008F0
:10008000DB010008DB010008DB010008DB010008E0
:10009000DB010008DB010008DB010008DB010008D0
:1000A000DB010008DB010008DB010008DB010008C0
:1000B000DB010008DB010008DB010008DB010008B0
:1000C000DB010008DB010008DB010008DB010008A0
:1000D000DB010008DB010008DB010008DB01000890
:1000E000DB010008DB010008DB010008DB01000880
:1000F000DB010008DB010008DB010008DB01000870
:10010000DB010008DB010008DB010008DB0100085F
:10011000DB010008DB010008DB010008DB0100084F
:10012000DB010008DB010008DB010008DB0100083F
:10013000DB010008DB010008DB010008DB0100082F
:10014000DB010008DB010008DB010008DB0100081F
:10015000DB010008DB010008DB010008DB0100080F
:10016000DB010008DB010008DB010008DB010008FF
:10017000DB010008DB010008DB010008DB010008EF
:10018000DB010008DB010008DB010008DB010008DF
:10019000DB010008DB010008DB010008DB010008CF
:1001A000DB010008DB010008DB010008DFF80CD0F0
:1001B00000F018F8004800479905000818040020CE
:1001C0000648804706480047FEE7FEE7FEE7FEE7F1
:1001D000FEE7FEE7FEE7FEE7FEE7FEE7F9040008BC
:1001E000AD010008064C074D06E0E06840F0010351
:1001F00094E8070098471034AC42F6D3FFF7DAFFD3
:10020000C8050008E805000810B500F081F800F006
:100210003FF910BD01B504490098086000BF0248CD
:1002200000680028FBD108BD1400002010B5012093
:1002300000F012F838B14FF48051034800F064F830
:10024000012000F003F810BD001C024001490860C5
:1002500070470000143C014001460020034A126828
:100260000A400AB1012000E000207047143C014020
:10027000F0B50A4600210023002400BF3DE001251F
:1002800005FA01F3156805EA03049C4234D10568B8
:100290004F000326BE40B543056015794E00B540BA
:1002A0000668354305601579012D02D01579022DB8
:1002B00016D185684F000326BE40B5438560557949
:1002C0004E00B540866835438560456801268E40FE
:1002D000B5434560456896798E40B6B23543456072
:1002E000C5684F000326BE40B543C560D5794E00B2
:1002F000B540C6683543C560491C1029BFD3F0BD61
:10030000418370470183704742694A4042617047A8
:100310001CB50121802000F017F84FF480500090A8
:1003200001208DF8040003208DF8050000208DF8D1
:10033000060001208DF8070069460248FFF798FF84
:100340001CBD0000001C024029B1064A126802438D
:10035000044B1A6004E0034A12688243014B1A609E
:1003600070470000303802400CB50020019000902A
:100370004148006840F480303F49086000BF3E4873
:10038000006800F4003000900198401C0190009833
:1003900018B90198B0F5A04FF1D13748006800F4C2
:1003A000003010B10120009001E000200090009882
:1003B000012860D130484030006840F080502E491C
:1003C000403108602D48006840F440402B490860E7
:1003D0002948083000682849083108600846006844
:1003E00040F4004008600846006840F4A0500860EF
:1003F0002348091F0860081F006840F08070091F2B
:10040000086000BF1C48006800F000700028F9D0A8
:100410001A48006840F480301849086000BF174847
:10042000406800F480300028F9D01448006840F497
:1004300000301249086000BF1048406800F40030E6
:100440000028F9D040F205700E4908600A480830CB
:10045000006820F003000849083108600846006879
:1004600040F00200086000BF03480830006800F058
:100470000C000828F8D10CBD003802400070004084
:10048000195A4007003C024000B500F069F800BD71
:1004900030B515480068154AB0FBF2F1481EB0F1BE
:1004A000807F01D301201BE0481E4FF0E022506105
:1004B00050170F22002807DA13071D0E0C4B00F00F
:1004C0000F04241F1D5503E013071C0E094B1C5479
:1004D00000BF00204FF0E022906107201061002053
:1004E00008B100BFFEE730BD00000020A08601007B
:1004F00018ED00E000E400E010B51548006840F495
:100500007000134908601348006840F00100114969
:10051000086000200F49083108600E4800680E4945
:1005200008400C4908600D48091D0860081F006854
:1005300020F48020091F0860002006490C31086063
:10054000FFF712FF4FF0006001498039086010BDCD
:1005500088ED00E000380240FFFFF6FE1030002476
:100560000448006820B103480068401E0149086043
:10057000704700001400002002E008C8121F08C1E4
:10058000002AFAD170477047002001E001C1121F14
:10059000002AFBD170470000FFF736FE0FE04FF452
:1005A00080510748FFF7AEFE0648FFF733FE4FF4D1
:1005B00080510348FFF7A4FE0248FFF72BFEEEE749
:1005C000001C0240A0860100E80500080000002091
:1005D0001800000078050008000600081800002038
:1005E00000040000880500080095BA0A0000000019
:1005F00000000000010203040607080900000000D3
:04000005080001AD41
:00000001FF
